:020000040800F2
:1000000000000A2005D3050879CA050881CA050839
:1000100089CA050891CA050899CA050855D3050873
:1000200000000000000000000000000091B306087E
:10003000A1CA05080000000031B30608617A06086D
:1000400055D3050855D3050855D3050855D30508DC
:1000500055D3050855D3050855D3050855D30508CC
:1000600055D3050855D3050855D3050855D30508BC
:1000700055D3050855D3050855D3050855D30508AC
:1000800055D3050855D3050855D3050855D305089C
:1000900055D3050855D3050855D3050855D305088C
:1000A00055D3050855D3050855D3050855D305087C
:1000B00055D3050855D3050855D3050855D305086C
:1000C00055D3050855D3050855D3050855D305085C
:1000D0000000000055D3050855D3050855D3050881
:1000E00055D3050855D3050855D3050855D305083C
:1000F00055D30508B1CA050855D3050855D30508D9
:1001000055D3050855D3050855D3050855D305081B
:1001100055D3050855D3050855D3050855D305080B
:1001200055D3050855D3050855D3050811CB050847
:1001300055D3050855D3050855D3050855D30508EB
:1001400055D3050855D3050855D3050855D30508DB
:1001500055D3050855D3050855D3050855D30508CB
:1001600055D305082DCC050855D3050855D30508EA
:1001700055D3050855D3050855D3050855D30508AB
:1001800055D3050855D3050855D3050855D305089B
:1001900055D3050841CC050855D3050855D30508A6
:1001A00055D3050855D3050855D3050855D305087B
:1001B00055D3050855D3050855D3050855D305086B
:1001C00055D3050855D3050855D3050855D305085B
:1001D00055D3050855D3050855D3050855D305084B
:1001E00055D3050855D3050855D3050855D305083B
:1001F00055D3050855D3050855D3050855D305082B
:1002000055D3050855D3050855D30508000000004F
:100210000000000055D305080000000055D3050874
:1002200055D3050855D3050855D3050855D30508FA
:1002300055D3050855D3050855D3050855D30508EA
:0C02400055D3050855D3050855D3050813
:1002500010B5054C237833B9044B13B10448AFF300
:1002600000800123237010BD500700200000000013
:1002700000E7060808B5034B1BB103490348AFF379
:10028000008008BD000000005407002000E70608B9
:1002900010F8012B11F8013B012A28BF9A42F7D030
:1002A000D01A7047034613F8012B002AFBD1181A05
:1002B0000138704781F0004102E000BF83F0004345
:1002C00030B54FEA41044FEA430594EA050F08BFF1
:1002D00090EA020F1FBF54EA000C55EA020C7FEAB5
:1002E000645C7FEA655C00F0E2804FEA5454D4EB32
:1002F0005555B8BF6D420CDD2C4480EA020281EAFC
:10030000030382EA000083EA010180EA020281EA33
:100310000303362D88BF30BD11F0004F4FEA013185
:100320004FF4801C4CEA113102D0404261EB410194
:1003300013F0004F4FEA03334CEA133302D052421A
:1003400063EB430394EA050F00F0A780A4F10104D6
:10035000D5F1200E0DDB02FA0EFC22FA05F2801810
:1003600041F1000103FA0EF2801843FA05F35941F6
:100370000EE0A5F120050EF1200E012A03FA0EFC75
:1003800028BF4CF0020C43FA05F3C01851EBE3719F
:1003900001F0004507D54FF0000EDCF1000C7EEBBC
:1003A00000006EEB0101B1F5801F1BD3B1F5001FFA
:1003B0000CD349085FEA30004FEA3C0C04F1010419
:1003C0004FEA445212F5800F80F09A80BCF1004F42
:1003D00008BF5FEA500C50F1000041EB045141EAC4
:1003E000050130BD5FEA4C0C404141EB0101013C8D
:1003F00028BFB1F5801FE9D291F0000F04BF01467C
:100400000020B1FA81F308BF2033A3F10B03B3F14D
:1004100020020CDA0C3208DD02F1140CC2F10C02DD
:1004200001FA0CF021FA02F10CE002F11402D8BF3B
:10043000C2F1200C01FA02F120FA0CFCDCBF41EA07
:100440000C019040E41AA2BF01EB0451294330BDD6
:100450006FEA04041F3C1CDA0C340EDC04F11404B3
:10046000C4F1200220FA04F001FA02F340EA03008A
:1004700021FA04F345EA030130BDC4F10C04C4F1D0
:10048000200220FA02F001FA04F340EA03002946B0
:1004900030BD21FA04F0294630BD94F0000F83F4FA
:1004A000801306BF81F480110134013D4EE77FEADD
:1004B000645C18BF7FEA655C29D094EA050F08BF29
:1004C00090EA020F05D054EA000C04BF194610460A
:1004D00030BD91EA030F1EBF0021002030BD5FEA4E
:1004E000545C05D14000494128BF41F0004130BD76
:1004F00014F580043CBF01F5801130BD01F00045CA
:1005000045F0FE4141F470014FF0000030BD7FEA3C
:10051000645C1ABF194610467FEA655C1CBF0B4637
:10052000024650EA013406BF52EA033591EA030F4E
:1005300041F4002130BD00BF90F0000F04BF002146
:10054000704730B54FF4806404F132044FF0000579
:100550004FF0000150E700BF90F0000F04BF0021F2
:10056000704730B54FF4806404F1320410F0004558
:1005700048BF40424FF000013EE700BF42004FEA53
:10058000E2014FEA31014FEA02701FBF12F07F43D0
:1005900093F07F4F81F06051704732F07F4208BF87
:1005A000704793F07F4F04BF41F40021704730B58E
:1005B0004FF4607401F0004521F000411CE700BFDA
:1005C00050EA010208BF704730B54FF000050AE05D
:1005D00050EA010208BF704730B511F0004502D55E
:1005E000404261EB41014FF4806404F132045FEA60
:1005F000915C3FF4D8AE4FF003025FEADC0C18BF09
:1006000003325FEADC0C18BF033202EBDC02C2F1FA
:10061000200300FA03FC20FA02F001FA03FE40EA8C
:100620000E0021FA02F11444BDE600BF70B54FF090
:10063000FF0C4CF4E06C1CEA11541DBF1CEA13556E
:1006400094EA0C0F95EA0C0F00F0DEF82C4481EAD6
:10065000030621EA4C5123EA4C5350EA013518BFF6
:1006600052EA033541F4801143F4801338D0A0FBE3
:1006700002CE4FF00005E1FB02E506F00042E0FB90
:1006800003E54FF00006E1FB03569CF0000F18BF96
:100690004EF0010EA4F1FF04B6F5007F64F540743E
:1006A00004D25FEA4E0E6D4146EB060642EAC621D1
:1006B00041EA55514FEAC52040EA5E504FEACE2E3E
:1006C000B4F1FD0C88BFBCF5E06F1ED8BEF1004F41
:1006D00008BF5FEA500E50F1000041EB045170BDBD
:1006E00006F0004646EA010140EA020081EA030101
:1006F000B4EB5C04C2BFD4EB0C0541EA045170BDFD
:1007000041F480114FF0000E013C00F3AB8014F176
:10071000360FDEBF002001F0004170BDC4F10004BF
:10072000203C35DA0C341BDC04F11404C4F1200540
:1007300000FA05F320FA04F001FA05F240EA02009B
:1007400001F0004221F0004110EBD37021FA04F6D1
:1007500042EB06015EEA430E08BF20EAD37070BD8B
:10076000C4F10C04C4F1200500FA04F320FA05F0EA
:1007700001FA04F240EA020001F0004110EBD370EC
:1007800041F100015EEA430E08BF20EAD37070BD5C
:10079000C4F1200500FA05F24EEA020E20FA04F335
:1007A00001FA05F243EA020321FA04F001F00041E4
:1007B00021FA04F220EA020000EBD3705EEA430E55
:1007C00008BF20EAD37070BD94F0000F0FD101F084
:1007D0000046400041EB010111F4801F08BF013CBD
:1007E000F7D041EA060195F0000F18BF704703F0FB
:1007F0000046520043EB030313F4801F08BF013D82
:10080000F7D043EA0603704794EA0C0F0CEA13553D
:1008100018BF95EA0C0F0CD050EA410618BF52EAF7
:100820004306D1D181EA030101F000414FF00000FD
:1008300070BD50EA410606BF1046194652EA43060B
:1008400019D094EA0C0F02D150EA013613D195EA7F
:100850000C0F05D152EA03361CBF104619460AD1C7
:1008600081EA030101F0004141F0FE4141F47001D1
:100870004FF0000070BD41F0FE4141F4780170BDC1
:1008800070B54FF0FF0C4CF4E06C1CEA11541DBF26
:100890001CEA135594EA0C0F95EA0C0F00F0A7F828
:1008A000A4EB050481EA030E52EA03354FEA013155
:1008B00000F088804FEA03334FF0805545EA131368
:1008C00043EA12634FEA022245EA111545EA106530
:1008D0004FEA00260EF000419D4208BF964244F1C7
:1008E000FD0404F5407402D25B084FEA3202B61AE6
:1008F00065EB03055B084FEA32024FF480104FF4BA
:10090000002CB6EB020E75EB030E22BFB61A75462D
:1009100040EA0C005B084FEA3202B6EB020E75EBC0
:10092000030E22BFB61A754640EA5C005B084FEA28
:100930003202B6EB020E75EB030E22BFB61A7546F5
:1009400040EA9C005B084FEA3202B6EB020E75EB00
:10095000030E22BFB61A754640EADC0055EA060EC1
:1009600018D04FEA051545EA16754FEA06164FEA04
:10097000C30343EA52734FEAC2025FEA1C1CC0D1B0
:1009800011F4801F0BD141EA00014FF000004FF03D
:10099000004CB6E711F4801F04BF01430020B4F1FE
:1009A000FD0C88BFBCF5E06F3FF6AFAEB5EB030CB6
:1009B00004BFB6EB020C5FEA500C50F1000041EBB3
:1009C000045170BD0EF0004E4EEA113114EB5C0480
:1009D000C2BFD4EB0C0541EA045170BD41F4801153
:1009E0004FF0000E013C90E645EA060E8DE60CEA5B
:1009F000135594EA0C0F08BF95EA0C0F3FF43BAF78
:100A000094EA0C0F0AD150EA01347FF434AF95EA2E
:100A10000C0F7FF425AF104619462CE795EA0C0F12
:100A200006D152EA03353FF4FDAE1046194622E7DF
:100A300050EA410618BF52EA43067FF4C5AE50EAB9
:100A400041047FF40DAF52EA43057FF4EBAE12E7A9
:100A50004FF0FF3C06E000BF4FF0010C02E000BF8A
:100A60004FF0010C4DF804CD4FEA410C7FEA6C5C6D
:100A70004FEA430C18BF7FEA6C5C1BD001B050EA10
:100A8000410C0CBF52EA430C91EA030F02BF90EAFB
:100A9000020F0020704710F1000F91EA030F58BFBA
:100AA000994208BF90422CBFD8176FEAE37040F01C
:100AB000010070474FEA410C7FEA6C5C02D150EABA
:100AC000013C07D14FEA430C7FEA6C5CD6D152EA75
:100AD000033CD3D05DF8040B704700BF844610463A
:100AE00062468C461946634600E000BF01B5FFF739
:100AF000B7FF002848BF10F1000F01BD4DF808ED09
:100B0000FFF7F4FF0CBF012000205DF808FB00BFD9
:100B10004DF808EDFFF7EAFF34BF012000205DF833
:100B200008FB00BF4DF808EDFFF7E0FF94BF012080
:100B300000205DF808FB00BF4DF808EDFFF7CEFF81
:100B400094BF012000205DF808FB00BF4DF808EDC0
:100B5000FFF7C4FF34BF012000205DF808FB00BF91
:100B60004FEA410212F5001215D211D56FF47873D5
:100B7000B3EB625212D94FEAC12343F0004343EA78
:100B8000505311F0004F23FA02F018BF4042704753
:100B90004FF00000704750EA013005D111F00040DD
:100BA00008BF6FF0004070474FF00000704700BF73
:100BB0004A0011D212F5001211D20DD56FF47873DC
:100BC000B3EB62520ED44FEAC12343F0004343EA31
:100BD000505323FA02F070474FF00000704750EA7C
:100BE000013002D14FF0FF3070474FF000007047E6
:100BF0004FEA4102B2F1E04324BFB3F5001CDCF13F
:100C0000FE5C0DD901F0004C4FEAC0024CEA507076
:100C1000B2F1004F40EB830008BF20F001007047A5
:100C200011F0804F21D113F13872BCBF01F00040A8
:100C3000704741F480114FEA5252C2F11802C2F1DA
:100C4000200C10FA0CF320FA02F018BF40F001005B
:100C50004FEAC1234FEAD32303FA0CFC40EA0C000D
:100C600023FA02F34FEA4303CCE77FEA625307D14A
:100C700050EA01331EBF4FF0FE4040F44000704781
:100C800001F0004040F0FE4040F40000704700BF1B
:100C900053B94AB9002908BF00281CBF4FF0FF31E3
:100CA0004FF0FF3000F0E6B9ADF1080C6DE904CE6D
:100CB00000F03CF8DDF804E0DDE9022304B0704701
:100CC00038B50022002304460D46FFF721FF28B95E
:100CD00020462946BDE8384000F00AB8204605F114
:100CE000004100F005F8404261EB410138BD00BF12
:100CF000D0B500220B4B06460F46FFF797FCFFF7D7
:100D000057FF0446FFF718FC0022074BFFF78EFC45
:100D100002460B4630463946FFF7D0FAFFF748FF48
:100D20002146D0BD0000F03D0000F0412DE9F04F1C
:100D3000099D884604468E46002B4AD18A421746B2
:100D40005FD9B2FA82F64EB1C6F1200301FA06FE6F
:100D5000B740B44020FA03F343EA0E0E4FEA1748B7
:100D60001FFA87FC230CBEFBF8F108FB11EE01FB18
:100D70000CF243EA0E439A4207D9FB1801F1FF3007
:100D800002D29A4200F2548101469B1AA2B2B3FBEE
:100D9000F8F008FB103300FB0CFC42EA03429445D8
:100DA0000BD9BA1800F1FF332CBF0124002494455D
:100DB00002D9002C00F03F81184640EA0140A2EB26
:100DC0000C0200211DB1F2400023C5E90023BDE85B
:100DD000F08F8B4205D90DB1C5E90001002108460D
:100DE000F5E7B3FA83F100294ED14345C0F01281F3
:100DF000824240F20F810846002DE8D0C5E9004E3E
:100E0000E5E7002A00F0AC80B2FA82F6002E40F04E
:100E1000BB808B1A4FEA124EBCB20121020C80B289
:100E2000B3FBFEFC0EFB1C3342EA034304FB0CF253
:100E30009A420ED9FB180CF1FF382CBF4FF0010974
:100E40004FF000099A4203D9B9F1000F00F0EC808D
:100E5000C4469B1AB3FBFEF80EFB183304FB08F4E0
:100E600040EA034294420BD9BA1808F1FF332CBF71
:100E700001200020944202D9002800F0D180984639
:100E8000121B48EA0C409DE7C1F120068B4008FA8E
:100E900001F400FA01F922FA06F728FA06F88A4066
:100EA0001F4320FA06F3380C23431FFA87FC1C0C5F
:100EB000B8FBF0FE00FB1E8844EA08440EFB0CF869
:100EC000A0450ED93C190EF1FF3A2CBF4FF0010B93
:100ED0004FF0000BA04503D9BBF1000F00F0B88024
:100EE000D646A4EB08041FFA83F8B4FBF0F300FB2A
:100EF000134403FB0CFC48EA0444A4450ED93C19F6
:100F000003F1FF302CBF4FF001084FF00008A4455B
:100F100003D9B8F1000F00F09F80034643EA0E406A
:100F2000A4EB0C04A0FB02EC64457346E04602D33C
:100F300007D1F14505D2BEEB02036CEB070C01387B
:100F4000E0465DB1B9EB030264EB080404FA06F66F
:100F500022FA01F3CC401E43C5E90064002136E7C4
:100F6000B1FBF2FC010C144680B2964641EA0841FE
:100F70002026904640EA01431046B1FBF2F1A3EB74
:100F8000080341EA0C414BE7B740C6F1200301FAE0
:100F900006F221FA03F84FEA174E20FA03F3BCB227
:100FA000B0401343020C190C80B2B8FBFEF90EFBE3
:100FB000198841EA084109FB04F8884551D9791894
:100FC00009F1FF3C2CBF4FF0010A4FF0000A8845A1
:100FD00002D9BAF1000F31D0A1EB0801B1FBFEF943
:100FE00009FB04F80EFB19119BB243EA0143434588
:100FF00035D2FB1809F1FF312CBF4FF0010A4FF039
:10100000000A4345BBD2BAF1000FB8D1A9F10201E1
:101010003B44B4E7841A68EB030201209646EBE6F2
:101020003A44A8F102082BE7ACF1020C3B4410E76C
:1010300002393B44A9E63A440238BEE6A7EB080869
:10104000A9F1020C4144B1FBFEF909FB04F8C9E720
:10105000AEF1020E3C4444E7023B3C445EE74946A5
:101060008DE7A1EB0801CC46B1FBFEF909FB04F8C2
:10107000B8E700BF704700BF80B400AF024B18460E
:10108000BD465DF8047B70476C07002080B500AF5B
:10109000082200210A486BF0BDFC0A4B002242F0F6
:1010A00055025A7300229A730022DA7300221A74CE
:1010B000044B05225A74034B7F229A7400BF80BDF3
:1010C000790700206C07002080B582B000AFFFF7E1
:1010D000D3FF78607B683B603B6800225A603B68C6
:1010E00001221A803B685B889B089BB21A4679688C
:1010F00004485CF063FC02463B685A6000BF083756
:10110000BD4680BDA478002080B500AF044B1822F6
:101110005A80034B01221A80FFF7B8FF00BF80BD41
:101120006C07002080B500AF1822002103486BF047
:1011300071FCFFF7E9FF00BF80BD00BF6C07002016
:1011400080B483B000AF0346FB71FB79023B082BF0
:101150002FD801A252F823F0951100089B11000826
:10116000A1110008A7110008AD1100087D110008A9
:1011700083110008891100088F1100084FF496733D
:1011800019E04FF4966316E04FF4166313E04FF442
:10119000965310E04FF496430DE04FF416430AE0E7
:1011A0004FF4614307E04FF4963304E04FF4E1332A
:1011B00001E04FF4165318460C37BD465DF8047B2A
:1011C000704700BF80B500AFAC4866F071FE0346C3
:1011D000AB4A1360AB4866F06BFE0346AA4A136045
:1011E000AA4866F065FE0346A94A1360A94866F05E
:1011F0005FFE0346A84A1360A84866F059FE0346FE
:10120000A74A1360A74866F053FE0346A64A136038
:10121000A64866F04DFE0346A54A1360A54866F051
:1012200047FE0346A44A1360A44866F041FE034605
:10123000A34A1360A34866F03BFE0346A24AD3606C
:10124000A24866F035FE0346A14A936000220121C0
:10125000012066F038FF03469E4A136000220521F4
:10126000052066F030FF03469B4A136000220121EF
:10127000012066F028FF0346984A136000220121EE
:10128000012066F020FF0346954A136000220821E2
:10129000082066F018FF0346924A136000220121DD
:1012A000012066F010FF03468F4A136000220121DF
:1012B000012066F008FF03468C4A136000220321D8
:1012C000032066F000FF0346894A136000220121D3
:1012D000012066F0F8FE0346864A136000220121D1
:1012E000012066F0F0FE0346834A136000220121CC
:1012F000012066F0E8FE0346804A136000221021B8
:10130000192067F079F903467D4A13600023002213
:1013100001217C4866F0FAFC03467B4A13600023F7
:1013200000220121794866F0F1FC0346784A1360F7
:10133000002300220121774866F0E8FC0346764A44
:101340001360002300220121744866F0DFFC03468D
:10135000734A1360002300220121724866F0D6FC14
:101360000346714A13600023002201216F4866F092
:10137000CDFC03466E4A13606E4A00216E4866F04B
:10138000FFFB03466D4A13606D4A00216D4866F00D
:10139000F7FB03466C4A13606C4A00216C4866F008
:1013A000EFFB03466B4A13606B4A00216B4866F003
:1013B000E7FB03466A4A13606A4A00216A4866F0FE
:1013C000DFFB0346694A1360694A0021694866F0F9
:1013D000D7FB0346684A1360684A0021684866F0F4
:1013E000CFFB0346674A1360674A0021674866F0EF
:1013F000C7FB0346664A1360664A0021664866F0EA
:10140000BFFB0346654A1360654A0021654866F0E4
:10141000B7FB0346644A13603B4B1B680121184627
:1014200066F016FD3A4B1B684FF47A71184666F069
:101430000FFD394B1B684FF47A71184666F008FDB2
:10144000374B1B684FF47A71184666F001FD384B34
:101450001B684FF47A71184666F0FAFC324B1B6831
:101460004FF47A71184666F0F3FC504B1B684FF44A
:101470007A71184666F0ECFC00BF80BD70FC06086F
:101480008C07002080FC06089007002090FC0608CE
:1014900094070020A0FC060898070020B0FC06086E
:1014A0009C070020C0FC0608A007002050FC06088E
:1014B0008407002060FC060888070020D0FC06088E
:1014C000A4070020E0FC0608480D0020F0FC0608F8
:1014D000380D0020D4070020D8070020DC070020AA
:1014E000E0070020E4070020E8070020FC070020B8
:1014F000EC070020F0070020F4070020F807002088
:10150000D00700208319000800080020856D050819
:10151000080800201D58020804080020F15705089B
:1015200014080020457005080C080020D1F40408B8
:101530001808002020FE0608E11A0008C80700204D
:1015400000FD06084D850508A807002024FD0608B3
:1015500071820508AC07002048FD060829590208D9
:10156000B0070020FCFD0608B16A0508C40700208A
:10157000B4FD060875190008BC07002044FE0608E3
:10158000C1570208CC0700206CFD060845960408E8
:10159000B407002090FD060899750508B8070020DB
:1015A000D8FD0608E1540408C007002010080020F8
:1015B00080B400AF024B1846BD465DF8047B70470F
:1015C0001C08002080B487B000AFF860B9603B60B1
:1015D0001346FB710023FB82BB6A002B01D102235F
:1015E00001E0B7F9163018461C37BD465DF8047B9C
:1015F000704780B487B000AFF860B9603B601346B5
:10160000FB710023FB82BB6A002B01D1022301E0A6
:10161000B7F9163018461C37BD465DF8047B704795
:1016200080B487B000AFF860B9603B601346FB71CF
:101630000023FB82FB6A002B01D1022301E0B7F9F2
:10164000163018461C37BD465DF8047B704780B4E1
:1016500087B000AFF860B9603B601346FB710023B0
:10166000FB82BB6A002B01D1022301E0B7F91630DF
:1016700018461C37BD465DF8047B704780B487B0C0
:1016800000AFF860B9603B601346FB710023FB823A
:10169000BB6A002B01D1022301E0B7F916301846CE
:1016A0001C37BD465DF8047B7047000080B483B0F2
:1016B00000AF78603960134BDA787B68DA70114BD1
:1016C0001A797B681A710F4B9A787B689A700D4B68
:1016D0001A887B681A800B4B5A793B681A70094B41
:1016E0009A793B685A70074BDA793B689A70054BD8
:1016F0001A7A3B68DA7000BF0C37BD465DF8047B90
:10170000704700BF0000002080B58CB000AF002300
:10171000FB855C4BD3F80D005B4B0022002100F0F1
:10172000A7FA03461A46FB8D1340FB85554BD3F8A9
:101730000D00564B0022012100F09AFA03461A468A
:10174000FB8D1340FB854F4BD3F80D00504B00220F
:10175000022100F08DFA03461A46FB8D1340FB85EB
:10176000484BD3F80D004B4B0022032100F080FAC8
:1017700003461A46FB8D1340FB85424BD3F80D0000
:10178000454B0022042100F073FA03461A46FB8DF4
:101790001340FB853B4BD3F80D00404B0022052145
:1017A00000F066FA03461A46FB8D1340FB85354B65
:1017B000D3F80D003A4B00220D2100F059FA0346F0
:1017C0001A46FB8D1340FB852E4BD3F80D00354B8D
:1017D00000220E2100F04CFA03461A46FB8D1340FE
:1017E000FB85284BD3F80D002F4B0022132100F06E
:1017F0003FFA03461A46FB8D1340FB85214BD3F875
:101800000D002A4B0022062100F032FA03461A4648
:10181000FB8D1340FB851B4BD3F80D00244B00229E
:101820000F2100F025FA03461A46FB8D1340FB8575
:10183000144BD3F80D001F4B0022112100F018FAB1
:1018400003461A46FB8D1340FB853B1D28220021D1
:1018500018466BF0DFF83B1D07331922164918466E
:101860006BF043FA19237B60064BD3F80D003A1D49
:101870000223002125F082FEB7F92E3018463037BA
:10188000BD4680BD6C07002058E8060868E80608D9
:1018900078E8060888E8060898E80608A8E8060830
:1018A000B8E80608C4E80608D0E80608DCE8060838
:1018B000E8E80608F0E80608FCE8060880B582B00B
:1018C00000AF0023FB80224B5B7C7B7105233B60D8
:1018D0007B7900223968184657F036F856F072FCCA
:1018E0001C49002001F090F9194BD3F80D3000226B
:1018F0001946002000F0FCF803461A46FB88134006
:10190000FB80FFF701FF03461A46FB881340FB806C
:101910001149002000F0DAFA1049032000F0D6FA4D
:101920000F49172000F0D2FA0E49182000F0CEFA25
:101930000D49012000F0CAFA0C49142000F0C6FA43
:101940000B49132000F0C2FA00BF0837BD4680BD26
:101950006C070020AD160008C5150008F315000837
:10196000154E0008454F0008211600084F160008C4
:101970007D16000880B582B000AF786023F096FF36
:10198000FCE780B582B000AF786056F0BDF900BFCB
:101990000837BD4680BD000080B500AF0022102191
:1019A00004485CF0B3FB0022802102485CF0AEFBEF
:1019B00000BF80BD000C024280B500AF01221021A3
:1019C00004485CF0A3FB0122802102485CF09EFBEE
:1019D00000BF80BD000C024280B584B000AFF8604B
:1019E000B9601346FB80FB68D3F88830202B24D1E4
:1019F000144B01221A70144B1B681A68124B1B6897
:101A000022F020021A60FFF7D7FFFB881A46B96858
:101A10000D4863F073FE0C4B1B681A680A4B1B6879
:101A200042F080021A60084B1B681A68064B1B685C
:101A300042F040021A60012300E0002318461037EC
:101A4000BD4680BD442F0020AC79002080B500AF9A
:101A5000124B1B881946124B1B78DAB20F4B0B4402
:101A60009A740E4B1B8801339AB20C4B1A800B4BA5
:101A70001B88B3F5007F02D9084B00221A80094B5E
:101A800000225A83074B0022DA82074B1B68012190
:101A900018465AF020FB0346002B80BDE87000205A
:101AA00058790020282F0020F807002080B500AFCB
:101AB000094B1B681A68084B1B6842F020021A6029
:101AC0000022102105485CF021FB00228021034800
:101AD0005CF01CFB00BF80BDAC790020000C024212
:101AE00080B582B000AF786056F010FFFCE70000D0
:101AF00080B588B000AFF860B9601346FB80002362
:101B0000FB610023BB6100237B61BB68514A9342A8
:101B100001D9072399E0504BFB61FB699B68002BBF
:101B200001D04D2391E0FB88002B01D04D238CE0A8
:101B3000FB699B68002B24D00BE0FB695B68BA68EB
:101B40009A4201D1102380E0FB69BB61FB69DB682D
:101B5000FB61FB69002BF0D1BB69FB614FF49D7306
:101B60003E4A3F4910205AF0F2FA0246FB69DA6019
:101B7000FB69DB68002B01D1052366E0FB69DB68AC
:101B8000FB614FF4A573354A35494FF451705AF053
:101B9000DEFA0246FB699A60FB699B68002B01D163
:101BA000052352E0FB699B684FF4517200211846EF
:101BB0006AF030FFFB699B68002283F80823FB6909
:101BC000BA685A60FB690022DA60FB699B680022F0
:101BD000B968184623F0F8FFFB699B68214A127820
:101BE00083F81223FB699B681F4AD2F84822C3F886
:101BF0000C23FB699B6803F213331B4AD2F848227B
:101C00001A4918466BF071F8FB699A68FB699B6882
:101C1000C3F89822FB699B680022C3F8BC22FB69C9
:101C20009B680022C3F8C02200237B6109E0FB69A6
:101C30009B687A69A832002143F822107B6901333E
:101C40007B617B69062BF2D9002318462037BD46FD
:101C500080BD00BFFEFF3F00BC0C002068FE0608F0
:101C600018E90608900A00201C0800206B0A0020D2
:101C700080B588B000AFF8607A603B600B467B812E
:101C80000023FB610023FB820023BB6100237B75E3
:101C9000FB68834A934203D87B68814A934201D907
:101CA0000723F9E0F86856F047FDF861FB69002B5F
:101CB00008D1F86856F058FDF861FB69002B01D196
:101CC0000323E9E07B89382B00F2AD8001A252F8B2
:101CD00023F000BFC11D0008C91D0008D11D000868
:101CE000D91D0008E11D0008E91D0008111E0008AB
:101CF000271E0008B91D0008271E0008271E00081F
:101D0000271E0008271E0008F11D0008F91D000805
:101D1000171E0008271E0008091E0008271E0008BD
:101D2000011E0008271E0008271E0008271E0008A5
:101D3000271E0008271E0008271E0008271E00086F
:101D4000271E0008271E0008271E0008271E00085F
:101D5000271E0008271E0008271E0008271E00084F
:101D6000271E0008271E0008271E0008271E00083F
:101D7000271E0008271E0008271E0008271E00082F
:101D8000271E0008271E0008271E0008271E00081F
:101D9000271E0008271E0008271E0008271E00080F
:101DA000271E0008271E0008271E0008271E0008FF
:101DB000271E00081F1E00084FF41973BB6134E092
:101DC0004FF4EC73BB6130E04FF40A73BB612CE05D
:101DD0004FF40173BB6128E04FF41873BB6124E03A
:101DE0004FF43A73BB6120E04FF42B73BB611CE0EE
:101DF0004FF4F873BB6118E04FF41473BB6114E047
:101E00004FF40273BB6110E04FF47E73BB610CE0D2
:101E1000D023BB6109E04FF4A273BB6105E04FF42E
:101E20001973BB6101E00023BB61FB687A8911462D
:101E3000184600F0E9FD03467B75BB69002B0BD00B
:101E40007B89082B08D07B7D83F00103DBB2002B5C
:101E500002D17B89382B01D10C231DE0FB69D3F81B
:101E60004C21104BDB689A4201D34D2314E0002330
:101E700000223968F8682DF0AFFD0346112B01D11F
:101E8000112309E078893B687A68F96922F010FE2D
:101E90000346FB82B7F9163018462037BD4680BD91
:101EA000FEFF3F000C00002080B483B000AF002391
:101EB000FB80054B01221A70B7F9063018460C3723
:101EC000BD465DF8047B7047C30E002080B483B02C
:101ED00000AF03463960FB713B68002B07D0FB79EC
:101EE0001F2B04D8FB7905493A6841F8232000BF2D
:101EF0000C37BD465DF8047B704700BF940A002094
:101F000080B596B002AFF860B9607A603B6007F1C7
:101F1000180300221A605A600023A7F84E300023ED
:101F2000BB640023FB8200237B6400233B6100230E
:101F30003B64002387F83F300023BB63002387F80E
:101F4000373000233B630023FB62786855F0F0FED6
:101F50000346A7F84E30B7F94E30212B11D022237B
:101F60003B83B7F84E307B834FF0FF33FB61FB6858
:101F70001A4607F1180393E8030082E8030000F013
:101F80004BBCAE4BBB63BB6B9B683B633B6B002B9B
:101F900010D122233B8302237B834FF0FF33FB616D
:101FA000FB681A4607F1180393E8030082E8030070
:101FB00000F032BC40F20363A14AA2494FF47070B2
:101FC0005AF0C5F803463B613B69002B10D1222330
:101FD0003B8326237B834FF0FF33FB61FB681A466C
:101FE00007F1180393E8030082E8030000F014BC33
:101FF0003B6901221A703B6908333B643B693A6BC9
:102000009A673B69BA6B5268C3F8B4223B6C03F120
:1020100014007B681033102219466AF066FE8A4B62
:102020001B7883F00103DBB2002B16D022233B8305
:1020300058237B834FF0FF33FB61386940F22C63F8
:102040007F4A80495AF0A4F8FB681A4607F1180342
:1020500093E8030082E80300DEE33B6B93F8083368
:10206000012B09D03B6B93F80833022B1BD17B6803
:1020700093F829301A2B16D022233B8359237B83D4
:102080004FF0FF33FB61386940F23C636C4A6D49A5
:102090005AF07EF8FB681A4607F1180393E803002C
:1020A00082E80300B8E37B681033184625F090F906
:1020B000F8627B6893F8292007F116031146184649
:1020C00055F0ECF8034683F00103DBB2002B16D089
:1020D00022233B8327237B834FF0FF33FB61386947
:1020E00040F25363564A57495AF052F8FB681A4671
:1020F00007F1180393E8030082E803008CE3FB8AEE
:10210000DAB23B6C83F85120FB8ADBB21A467B685B
:10211000DA624E4B1B684FF0FF31184659F0BDFF95
:102120000346002B1BD022233B8324237B834FF0C9
:10213000FF33FB61FB8ADBB2184655F08BF8386938
:1021400040F267633E4A3F495AF022F8FB681A465C
:1021500007F1180393E8030082E803005CE33C4BBB
:102160001B683C4A1268934216DA394B1B680133EC
:10217000374A1360364BDB68002B03D13B69344A86
:10218000D3602AE0324B1B693A69C3F8B8233B6934
:102190000022C3F8B82320E022233B8330237B8333
:1021A0004FF0FF33FB61FB8ADBB2184655F052F863
:1021B000386940F28B63224A224959F0E9FF234BE8
:1021C0001B68184659F078FFFB681A4607F1180398
:1021D00093E8030082E803001EE33B691C4A136195
:1021E0001A4B1B68184659F067FF3B68002B03D059
:1021F0003B693A68C3F8B0233B69002283F8982210
:102200003B694FF6FF72A3F8AC2255F0B3F8B864FF
:10221000BB6C6FF0004293421ED107F1100207F130
:1022200018031946282055F06BFFFB681A4607F182
:10223000180393E8030082E80300EDE2BC0C0020E1
:102240007CFE060818E90608C30E0020940700204B
:10225000600E00200C0000203B69BA6CC3F8B0226D
:102260003B69D3F8B0321A467B681A603B6903F5C4
:102270003073F022796818466AF037FD3B6903F540
:102280003C73C022002118466AF0C4FB7B681A7BAD
:102290003B6C1A707B6893F821203B6C83F83820E4
:1022A0003B6BD3F81C31A64AA2FB03239B097B643A
:1022B0003B6C002283F868203B6C012283F86C2081
:1022C0003B6C4FF4F072A3F86A2097F8373083F034
:1022D0000103DBB2002B1DD0FB6A002B1AD0FB6A76
:1022E000DA883B6CA3F86A20FB6A9A7A3B6C83F825
:1022F0006820FB6A9B7A002B03D0FB6A9B7A022B37
:1023000004D13B6C012283F86C2003E03B6C00227B
:1023100083F86C203B6B93F83431022B04D03B6B79
:1023200093F83431002B04D13B6C012283F84E200A
:1023300003E03B6C002283F84E203B6BB3F8A431E2
:102340001A463B6C5A643B6BB3F82C311A463B6C13
:102350009A647A6C3B6CDA607A4B5B681A463B6C29
:102360001A613B6C00229A607B6893F829203B6CD1
:102370009A707B6893F82930013B212B00F204828C
:1023800001A252F823F000BFB72500084D2600082F
:10239000892700088927000889270008892700085D
:1023A000892700088927000889270008892700084D
:1023B000892700088927000889270008892700083D
:1023C000892700088927000889270008892700082D
:1023D000892700088927000889270008892700081D
:1023E000892700088927000889270008DD240008BC
:1023F000BD260008B72500084D26000889270008DB
:102400008927000889270008892700081124000867
:102410000023BB623B6C082283F854203B6C03F121
:1024200034007B689A7B7B6893F820300021009110
:10243000002159F007FB3B6C10225A7040F68303D1
:10244000414A4249082059F082FEB862BB6A002B1B
:1024500010D107F1100207F118031946292055F091
:102460004FFEFB681A4607F1180393E8030082E861
:102470000300D1E13B6CBA6A5A667B681A6BBB6A8F
:102480001A607B685A6BBB6A5A607B6893F820308D
:10249000002B04D07B681A8E3B6CA3F8422079682D
:1024A000386C55F052FE034687F83F3097F83F30BE
:1024B000002B00F0728197F83F301BB207F1100239
:1024C00007F11801184655F01BFEFB681A4607F184
:1024D000180393E8030082E803009DE100233B62B8
:1024E0003B6C002283F854203B6C03F134007B6882
:1024F0009A7B7B6893F8203001210091002159F0EC
:10250000A1FA3B6C10225A7040F6D8030E4A0F49CC
:10251000102059F01CFE38623B6A002B18D107F1DD
:10252000100207F118031946292055F0E9FDFB6850
:102530001A4607F1180393E8030082E803006BE1F1
:10254000D34D6210580000207CFE060818E90608EA
:102550007B685A6B3B6A5A607B6893F830203B6A11
:102560001A707B689A6B3B6A9A607B685A8E3B6AEA
:102570005A803B6C3A6A5A667968386C55F0E5FDCA
:10258000034687F83F3097F83F30002B00F0078173
:1025900097F83F301BB207F1100207F118011846F7
:1025A00055F0AEFDFB681A4607F1180393E80300E7
:1025B00082E8030030E17B6893F82930012B28D1B1
:1025C0003B6C012283F854203B6C03F134007B68A0
:1025D0009A7B002300930023012159F033FA7B6892
:1025E00093F83030002B07D13B6C00225A707B6887
:1025F0005A6C3B6C5A66D4E03B6C20225A707B6864
:10260000DB6ADAB23B6C83F851203B6C00225A66DD
:10261000C7E07B6893F829301C2B40F0C2803B6CEC
:10262000022283F854203B6C10225A703B6C03F159
:1026300034007B689A7B002300930023002159F02B
:1026400001FA7B685A6C3B6C5A66AAE07B6893F887
:102650002930022B1FD13B6C022283F854207B6867
:1026600093F83030002B08D13B6C00225A707B6805
:10267000D3F884203B6C5A6695E03B6C20225A705C
:102680007B68DB6ADAB23B6C83F851203B6C00223A
:1026900083F83C2087E07B6893F829301D2B40F0BD
:1026A00082803B6C032283F854203B6C10225A70CA
:1026B0007B68D3F884203B6C5A6674E000237B620D
:1026C0003B6C012283F854203B6C03F134007B689F
:1026D0009A7B002300930023002159F0B3F93B6C4F
:1026E00010225A7040F693134D4A4E49382059F043
:1026F0002EFD78627B6A002B10D107F1100207F1E2
:1027000018031946292055F0FBFCFB681A4607F10F
:10271000180393E8030082E803007DE03B6C7A6ACB
:102720005A667B681A6B7B6A1A607B689A8E7B6A32
:102730009A807B689A6B7B6A9A607B6A03F10C00D3
:102740007B683C33282219466AF0CFFA7968386CE6
:1027500055F0FBFC034687F83F3097F83F30002BDD
:1027600023D097F83F301BB207F1100207F1180190
:10277000184655F0C5FCFB681A4607F1180393E8A4
:10278000030082E8030047E0FB681A4607F11803DC
:1027900093E8030082E803003EE000BF06E000BFCC
:1027A00004E000BF02E000BF00E000BF3B691B780F
:1027B000012B22D13B69FD221A701B4B1B680121A2
:1027C000184659F088FC0346002B10D107F110027F
:1027D00007F118031946252055F092FCFB681A46AC
:1027E00007F1180393E8030082E8030014E02123B3
:1027F0003B837B681B68FB6106E022233B839023BD
:102800007B834FF0FF33FB61FB681A4607F1180327
:1028100093E8030082E80300F8685037BD4680BDA6
:102820007CFE060818E90608E407002080B584B09D
:1028300000AF78600B46FB704FF6FF73FB817B683F
:10284000002B51D0F022002178686AF0E3F897F964
:102850000330462B18D0462B1BDC292B02D0452BEE
:102860000DD016E07B68222283F829207B684FF088
:10287000FF325A637B684FF0FF321A630AE07B68CD
:102880001A2283F8292005E07B681B2283F829207F
:1028900000E000BF7B68164A9A607B6806221A74C3
:1028A0007B6800225A827B6800225A747B681A3344
:1028B0000622002118466AF0ADF87B6800229A7360
:1028C0007B684FF0FF321A607B680A221A737B68BC
:1028D000002283F820207B684FF480725A847B6842
:1028E000062283F8212000E000BF1037BD4680BDDE
:1028F000FFFF3F0080B584B000AF03463960FB8026
:102900000023FB603B68002B01D1532332E00023FE
:10291000FB60FB88012B0AD13B6800225A803B6890
:1029200001221A703B68FF221A71002322E0FB8803
:10293000022B1BD13B6800225A803B6801221A708F
:102940003B6800221A71002314E0FB681B88FA8898
:102950009A4208D1FB6802331022194638686AF09F
:10296000C4F9002306E0FB685B69FB60FB68002B91
:10297000EBD1572318461037BD4680BD80B586B0D1
:1029800000AFF860B9601346FB7100237B61FB79EF
:10299000002B18D01B4B7B6111E07B691A68FB6828
:1029A0001B689A4208D17B690C3310221946B8681B
:1029B0006AF09BF9002320E07B69DB697B617B691E
:1029C000002BEAD118E00F4B7B6112E07B690C33DE
:1029D0001022B96818466AF00DF80346002B05D19D
:1029E0007B691A68FB681A60002306E07B69DB6973
:1029F0007B617B69002BE9D1032318461837BD465C
:102A000080BD00BFD00C002080B586B000AF7860DC
:102A10000B467B800023FB600023FB750023FB72C9
:102A20000023BB7200237B7200233B617B88412B18
:102A300001D9FB7DE4E07B68002B80F2BB807B88C2
:102A4000382B00F2AC8001A252F823F0392B000899
:102A5000412B0008492B0008512B0008592B000876
:102A6000612B0008892B00089F2B0008312B0008E0
:102A70009F2B00089F2B00089F2B00089F2B00080E
:102A8000692B0008712B00088F2B00089F2B000872
:102A9000812B00089F2B0008792B00089F2B000832
:102AA0009F2B00089F2B00089F2B00089F2B0008DE
:102AB0009F2B00089F2B00089F2B00089F2B0008CE
:102AC0009F2B00089F2B00089F2B00089F2B0008BE
:102AD0009F2B00089F2B00089F2B00089F2B0008AE
:102AE0009F2B00089F2B00089F2B00089F2B00089E
:102AF0009F2B00089F2B00089F2B00089F2B00088E
:102B00009F2B00089F2B00089F2B00089F2B00087D
:102B10009F2B00089F2B00089F2B00089F2B00086D
:102B20009F2B00089F2B00089F2B0008972B000865
:102B30004FF419733B6134E04FF4EC733B6130E0C8
:102B40004FF40A733B612CE04FF401733B6128E0C2
:102B50004FF418733B6124E04FF43A733B6120E07B
:102B60004FF42B733B611CE04FF4F8733B6118E0AA
:102B70004FF414733B6114E04FF402733B6110E0B7
:102B80004FF47E733B610CE0D0233B6109E04FF4CE
:102B9000A2733B6105E04FF419733B6101E0002330
:102BA0003B613B69002B02D10023FB7527E0012329
:102BB000FB7524E07B68184655F0BEFDF860FB68A5
:102BC000002B02D10023FB7519E07B88DB089BB248
:102BD000FB72FB7AFA68134493F840317B727B886E
:102BE000DBB203F00703BB727A7ABB7A42FA03F3D3
:102BF00003F00103002B14BF01230023FB75FB7DB1
:102C000018461837BD4680BD80B483B000AF034678
:102C10003960FB713B68002B07D0FB79012B04D88E
:102C2000FB7905493A6841F8232000BF0C37BD46BF
:102C30005DF8047B704700BF140B002080B483B0A4
:102C400000AF03463960FB71FB791D2B04D8FB797B
:102C500004493A6841F8232000BF0C37BD465DF8AF
:102C6000047B7047200B002080B483B000AF034684
:102C70003960FB71FB790A2B04D8FB7904493A6867
:102C800041F8232000BF0C37BD465DF8047B704738
:102C9000980B002080B586B000AFF860B9603B604B
:102CA0001346FB800023FB82BB681B78DB1003F01C
:102CB0000103002B14BF01230023DAB2FB6883F861
:102CC0005020BB681B789B1003F00103002B14BF3E
:102CD00001230023DAB2FB6883F85120BB681B781C
:102CE0005B1003F00103002B14BF01230023DAB2B1
:102CF000FB6883F85220BB6801331B7818460FF03D
:102D00009BFC0246FB689A64BB6801331B7818463B
:102D10000FF0DAFC0246FB68DA64BB689A78FB685D
:102D200083F855200323FB82FB6893F85030002B77
:102D30001AD0FB8A5A1CFA821A46BB6813441A78C6
:102D4000FB6883F85620FB8A5A1CFA821A46BB6835
:102D500013441A78FB6883F85720FB689B6C002BA0
:102D600002D1FB6802229A64FB8A5A1CFA821A4634
:102D7000BB6813441A78FB6883F85820FA88FB8AEA
:102D8000D31A9BB21AB23B6A1A803B6AB3F900307D
:102D9000002B04D0FB8ABA681A443B681A60FB8A8D
:102DA00018461837BD4680BD80B586B000AF0023F9
:102DB0007B6100233B610023FB730023BB73002373
:102DC000BB6000237B60474B1B684FF0FF31184608
:102DD00059F063F9444B5B68002B02D106233B6139
:102DE00003E0414B5B68013B3B613B694FF425725B
:102DF00002FB03F308333C4A13440433BB603B69D2
:102E0000002B02D106237B615CE03B69013B7B61C7
:102E100058E07A693B699A4258D07B694FF4257231
:102E200002FB03F30833304A134404337B607B68AE
:102E300093F90030B3F1FF3F04D07B6893F9003081
:102E4000012B28D1BB6893F855207B6893F8553047
:102E50009A4220D1BB689A797B689B799A421AD1B1
:102E6000BB6803F118007B6818331022194669F01B
:102E7000C1FD0346002B0ED1BB6803F128007B681F
:102E800028331022194669F0B5FD0346002B02D104
:102E90000123FB731BE07B69002B0AD1BB7B83F012
:102EA0000103DBB2002B04D006237B610123BB733B
:102EB00008E07B69002B02D1BB7B002B07D17B692B
:102EC000013B7B617B69062BA3D900E000BF054B6A
:102ED0001B68184659F0F0F8FB7B18461837BD46BA
:102EE00080BD00BF8C070020C40E002090B58FB0BD
:102EF00002AFF860B9601346FB800023FB85002316
:102F000087F82A300023FB6100237B830023BB85E5
:102F100000237B62002387F82330002387F82B30BF
:102F200000237B61984B9B687B62FB68002B05D07C
:102F3000BB68002B02D07B6A002B02D1022300F079
:102F4000C6BCBB681B7823F00F03DAB2FB685A716A
:102F5000BB681B7823F00F0387F82A307B6AB3F82D
:102F60002C31FA889A422ED9FB6860225A71FB688C
:102F70000322DA65FB6801221A6697F82A30002BD3
:102F800007D1BB689A78FB6883F85520002300F0CE
:102F90009EBC97F82A30302B12D1BB685A78FB6858
:102FA00083F85520BB681B78DB1003F00103DBB20C
:102FB000002B02D0002300F08ABC022300F087BC63
:102FC000022300F084BCFB685B79702B00F0358431
:102FD000702B00F36E84602B00F0FE83602B00F3F7
:102FE0006884502B00F0A783502B00F36284402BA1
:102FF00000F04183402B00F35C84302B00F0008212
:10300000302B00F35684202B00F0B681202B00F3E8
:103010005084002B04D0102B00F05D8100F049BCDF
:1030200007F11C01FA8807F11A0300930B46B968EF
:10303000F868FFF72FFE0346BB85FB6893F858201E
:10304000FB685B791946104647F0EAFB03461A46CF
:10305000FB689A71FB682833184648F08FFC0346DA
:10306000012B0CD1FB6893F85830112B07D0FB686B
:1030700093F85830142B02D0022300F028BCFFF73D
:1030800093FE034687F8233097F82330002B02D0B5
:10309000022300F01CBCFB6893F85030002B76D064
:1030A0007B6A93F83431022B04D07B6A93F8343175
:1030B000002B5CD1FB6893F85630002B34D1FB68B1
:1030C00093F85730002B05D0FB6893F857305BB26C
:1030D000002B0BDAFB6870225A71FB6807221A6614
:1030E000FB68012283F853200023F0E3F86841F0E5
:1030F00075FD0346FB85B7F92E30022B01D1022363
:10310000E5E3B7F92E30052B0ED1FB6870225A711A
:10311000FB680322DA65FB6809221A66FB68012254
:1031200083F853200023D2E3F969B7F91A301A461D
:1031300007F11403F86841F0E9FE0346FB85B7F98F
:103140002E30022B03D0B7F92E30012B01D10223F0
:10315000BDE3B7F92E30002B01D10023B7E3B7F957
:103160002E30902B12D1012387F82B300EE0FB6814
:1031700070225A71FB6804221A66FB68012283F8E8
:1031800053200023A3E300BFBC0C002000BFFB685A
:1031900093F858301D2B77D8FB6893F858301A46AF
:1031A000934B53F82230002B6ED07B6A9B681A46F3
:1031B000FB689B791946104635F0F5FC0346002B59
:1031C00062D097F82B30002B4FD07B69002B4CD06E
:1031D0007B6993F858301A46854B53F8223078694A
:1031E0007A69D26FD1687A69D26F9268984703463C
:1031F000FB857B69D3F88030002B0AD07B69D3F83C
:1032000080300121184641F05FFA7B690022C3F843
:103210008020B7F92E30022B0AD17B694FF425723A
:103220000021184669F0F6FB7B6900221A7019E04C
:10323000B7F92E30002B15D17B6901221A706D4B26
:103240001B680121184658F046FF0346002B09D1A0
:103250007B694FF425720021184669F0DBFB7B691E
:1032600000221A700023FB8534E0FB6893F8583085
:103270001A465F4B53F82230F969B7F91A20F868FB
:1032800098470346FB8525E07B69002B19D07B69B5
:10329000D3F88030002B0AD07B69D3F8803001212D
:1032A000184641F011FA7B690022C3F880207B693F
:1032B0004FF425720021184669F0ACFB7B690022AF
:1032C0001A70FB6860225A71FB6809221A66002393
:1032D000FB85FAE2F9E2BB685A78FB6883F858206C
:1032E000BB680233FB61FB88023B9BB21BB27B8352
:1032F000FB6893F85820FB685B791946104647F045
:103300008FFA03461A46FB689A71FB682833184601
:1033100048F034FB0346012B01D10223D7E2FB68BE
:1033200093F858300A2B24D8FB6893F858301A4683
:10333000314B53F82230002B1BD07B6A9B681A4616
:10334000FB689B791946104635F02DFC0346002B8F
:103350000FD0FB6893F858301A46274B53F82230A9
:10336000F969B7F91A20F86898470346FB8500BF4A
:10337000ABE20223FB85A8E2BB685A78FB6883F8BE
:103380005520BB689A78FB6883F85820FB6893F84F
:1033900058301C2B8CBF01220022D2B2002A1ED131
:1033A000164A22FA03F303F00103002B14BF012392
:1033B0000023DBB2002B12D0FB6893F85820FB6887
:1033C0005B791946104647F02BFA03461A46FB680C
:1033D0009A71F86853F044FC0346FB8500E000BF97
:1033E000B7F92E30012B00F067820223FB8563E2E0
:1033F000200B0020D8070020980B0020278B5B1A99
:10340000BB681B78DB1003F00103002B14BF012302
:103410000023DAB2FB6883F85020BB681B789B104E
:1034200003F00103002B14BF01230023DAB2FB6871
:1034300083F85120BB685A78FB6883F85520022333
:10344000BB85FB6893F85030002B13D0BB8D5A1C02
:10345000BA851A46BB6813441A78FB6883F856206D
:10346000BB8D5A1CBA851A46BB6813441A78FB6890
:1034700083F85720BB8D5A1CBA851A46BB68134483
:103480001A78FB6883F85820BB8DBA681344FB6137
:10349000FA88BB8DD31A9BB21BB27B83FB6893F86F
:1034A0005030002B5CD07B6A93F83431022B04D06F
:1034B0007B6A93F83431002B45D1FB6893F8563082
:1034C000002B1DD1F86841F089FB0346FB85B7F955
:1034D0002E30022B01D10223F9E1B7F92E30052B52
:1034E0000ED1FB6870225A71FB680322DA65FB6813
:1034F00009221A66FB68002283F853200023E6E1C4
:10350000F969B7F91A301A4607F11403F86841F05F
:10351000FDFC0346FB85B7F92E30022B03D0B7F92B
:103520002E30012B01D10223D1E1B7F92E30002B2F
:1035300001D10023CBE1B7F92E30902B0FD101231D
:1035400087F82B300BE0FB6870225A71FB6804226D
:103550001A66FB68002283F853200223B7E100BFFC
:10356000FB6893F858301D2B8CBF01220022D2B289
:10357000002A7CD1954A22FA03F303F00103002BC1
:1035800014BF01230023DBB2002B70D0FB6893F83B
:1035900058301A468E4B53F82230002B47D097F8FC
:1035A0002B30002B34D07B69002B31D07B6993F812
:1035B00058301A46864B53F8223078697A69D26FB0
:1035C000D1687A69D26F926898470346FB857B6918
:1035D000D3F88030002B0AD07B69D3F880300121EA
:1035E000184641F071F87B690022C3F88020B7F9D2
:1035F0002E30022B09D17B694FF425720021184629
:1036000069F008FA7B6900221A700023FB8531E01B
:10361000FB6893F858301A466D4B53F82230F9691D
:10362000B7F91A20F86898470346FB8522E07B69C2
:10363000002B19D07B69D3F88030002B0AD07B692E
:10364000D3F880300121184641F03EF87B69002212
:10365000C3F880207B694FF425720021184669F079
:10366000D9F97B6900221A700223FB8502E002234C
:10367000FB8500BF29E1BB681B785B1003F00103E9
:10368000002B14BF01230023DAB2FB6883F8542017
:10369000BB681B7803F00103002B14BF0123002338
:1036A000DAB2FB6883F85320BB685A78FB6883F86A
:1036B0005520BB689A78FB6883F85620BB68DA7897
:1036C000FB6883F857200423BB85FB6893F85630CA
:1036D000002B23D1FB6893F85730002B05D0FB68F3
:1036E00093F857305BB2002B18DAFB6870225A71DE
:1036F000FB6807221A66FB6893F85330002B14BF4F
:1037000001230023DBB283F00103DBB203F00103EA
:10371000DAB2FB6883F853200023D8E0F86853F04E
:103720009FFA0346FB85B7F92E30012B00F0C680C7
:103730000223FB85C2E0BB685A78FB6883F85520FA
:10374000BB689A78FB6883F858200323BB85FB6825
:10375000012283F85320BB8DBA681344FB61FA88B9
:10376000BB8DD31A9BB21BB27B83FB6893F8583096
:103770001D2B17D8FB6893F858301A46154B53F891
:103780002230002B10D0FB6893F858301A46114BAA
:1037900053F82230F969B7F91A20F86898470346B8
:1037A000FB8501E00223FB85B7F92E30002B40F0AA
:1037B0008780F86853F054FA0346FB85B7F92E303A
:1037C000012B7DD00223FB857AE000BFD874A425AD
:1037D000C40B00203C0C0020BB685A78FB6883F8BF
:1037E0005520BB6802331B781A46FB681A66FB68D3
:1037F000012283F85320384B1B68002B0DD0364B29
:103800001B68FA6802F11800FA6892F85510FA6815
:10381000126ED2B298470346FB85B7F92E30002BC3
:1038200050D1F86853F01CFA0346FB85B7F92E30E7
:10383000012B47D00223FB8544E0BB681B7803F0D3
:103840000103002B14BF01230023DAB2FB6883F8C5
:103850005320BB685A78FB6883F85520BB68023355
:103860001B781A46FB681A661C4B1B68002B10D08D
:103870001A4B1C68FB6803F11800FB6893F855109D
:10388000FB681B6EDAB2FB6893F85330A04703461F
:10389000FB85B7F92E30002B16D1F86853F0E0F90C
:1038A0000346FB85B7F92E30012B0DD00223FB8593
:1038B0000AE00223FB8508E000BF06E000BF04E049
:1038C00000BF02E000BF00E000BFB7F92E3018468D
:1038D0003437BD4690BD00BFB80C0020B40C0020AA
:1038E000B0B58AB002AF78600023FB8200233B6151
:1038F0000123FB738923FB830823BB830023BB6065
:103900000023BB61A64B9B683B6140F2B163A54AB3
:10391000A5494FF4F06058F01AFC0346BB60BB6841
:10392000002B01D10523D1E37B682833184648F0EA
:1039300025F80346FB73FB7B012B0DD17B685B797C
:10394000202B09D07B6893F85830112B04D07B686A
:1039500093F85830142B0FD1FB7B022B1ED17B68C0
:103960005B79002B03D07B685B79102B16D17B68C9
:1039700093F85830002B11D0002300937B6853221A
:1039800000214FF0FF3047F063FCB86840F2DC6381
:10399000844A854958F0FCFB022397E37B6893F83F
:1039A0004130002B12D0BB68BA6992B219467868D0
:1039B00057F012FF0346FB82B86840F2EF63794A82
:1039C000794958F0E5FBB7F916307FE37B685B79FE
:1039D000702B00F01282702B00F31A82602B00F023
:1039E0000182602B00F31482502B00F0DA81502BFF
:1039F00000F30E82402B00F09481402B00F30882EC
:103A0000302B00F01881302B00F30282202B00F0C5
:103A1000EF80202B00F3FC81002B02D0102B7CD0F8
:103A2000F6E1BA68BB69591CB96113447A685279E6
:103A30001A707B6893F85030002B06D0BB681A7858
:103A4000BB6842F00802D2B21A707B6893F851301A
:103A5000002B06D0BB681A78BB6842F00402D2B2D1
:103A60001A707B6893F85230002B06D0BB681A7826
:103A7000BB6842F00202D2B21A707B68986C7B6815
:103A8000DD6CBA68BB69591CB961D41829460EF0BF
:103A90006BFD03462370BA68BB69591CB9611344B6
:103AA0007A6892F855201A707B6893F85030002B92
:103AB00011D0BA68BB69591CB96113447A6892F88D
:103AC00056201A70BA68BB69591CB96113447A68E8
:103AD00092F857201A70BA68BB69591CB96113442F
:103AE0007A6892F858201A707B6893F85830012B46
:103AF00002D0022B08D00FE0BB68BA69194678687B
:103B000045F07CFCB86107E0BB68BA691946786883
:103B10004AF01AFFB86100BF81E1BA68BB69591C5D
:103B2000B96113447A6852791A70BA68BB69591C32
:103B3000B96113447A6892F858201A707B6893F838
:103B40005830082B42D801A252F823F0813B0008DC
:103B5000913B0008AD3B0008BD3B0008CD3B000891
:103B6000CD3B0008CD3B0008CD3B0008713B000871
:103B7000BB68BA691946786847F056FFB86126E015
:103B8000BB68BA691946786848F0A8FAB8611EE0BF
:103B9000BB68BA691946786848F08AFEB86116E0D1
:103BA000BC0C00209CFE060844E90608BB68BA6904
:103BB0001946786845F022FCB86108E0BB68BA692C
:103BC000194678684AF0C0FEB86100E000BF3B6962
:103BD000B3F82C311A46BB69934240F31F81B86891
:103BE00040F295738B4A8C4958F0D2FA02236DE269
:103BF000BB681946786810F0F5FCB8617B6893F8EB
:103C000058300F2B02D0102B08D00FE0BB68BA69D8
:103C10001946786852F0FAF9B86107E0BB68BA69EA
:103C20001946786852F0E4FCB86100BF7B68002256
:103C300083F84020F3E0BA68BB69591CB9611344AA
:103C40007A6852791A707B6893F85030002B06D04E
:103C5000BB681A78BB6842F00802D2B21A707B685F
:103C600093F85130002B06D0BB681A78BB6842F03D
:103C70000402D2B21A70BA68BB69591CB961134404
:103C80007A6892F855201A707B6893F85030002BB0
:103C900011D0BA68BB69591CB96113447A6892F8AB
:103CA00056201A70BA68BB69591CB96113447A6806
:103CB00092F857201A70BA68BB69591CB96113444D
:103CC0007A6892F858201A707B6893F858301D2B48
:103CD00018D01D2B1FDC0C2B02D00E2B09D01AE0A4
:103CE00007F10803BA69194678684FF03FF9B861DF
:103CF00012E007F10803BA69194678684FF0EEFD43
:103D0000B86109E007F10803BA69194678684DF00F
:103D1000FDFEB86100E000BF7B68002283F8402010
:103D20007DE0BA68BB69591CB96113447A6852795D
:103D30001A707B6893F85330002B06D0BB681A7852
:103D4000BB6842F00102D2B21A707B6893F854301B
:103D5000002B06D0BB681A78BB6842F00202D2B2D0
:103D60001A70BA68BB69591CB96113447A6892F831
:103D700055201A70BA68BB69591CB96113447A6836
:103D800092F856201A70BA68BB69591CB96113447D
:103D90007A6892F857201A707B68002283F84020D6
:103DA0003DE0BB681946786800F0B1FAB8613B693C
:103DB000B3F82C311A46BB6993420EDD0123009300
:103DC0007B68332200216FF0010047F041FABB68A5
:103DD0001946786800F06EFAB8617B68002283F8B3
:103DE00040201CE0BB681946786800F04FFBB861C2
:103DF0007B68002283F8402011E0BB681946786890
:103E000000F058FAB8617B68002283F8402006E091
:103E100000BF04E09CFE060844E9060800BF7B687A
:103E20005B79002B40F08E80BB69002B40F3308122
:103E30007B68B3F86E20BB699BB29A4207D33B699B
:103E4000B3F82C21BB699BB29A4280F021817B6838
:103E500093F87030002B63D03B6993F83431012B19
:103E600004D03B6993F83431002B59D13B69B3F846
:103E70002C217B68B3F86E309A4205D23B69B3F8C7
:103E80002C217B68A3F86E20BB68BA6992B21946F0
:103E9000786840F029F90346FB82B7F91630002B09
:103EA00028D0B7F91630382B04D10323BB83332332
:103EB000FB830CE0B7F91630052B04D10323BB8339
:103EC0008523FB8303E00023BB838323FB83FA8BDF
:103ED000B98B002300937B684FF0FF3047F0B8F9AF
:103EE000B86840F6AA037B4A7B4958F051F9B7F904
:103EF0001630EBE07B68DB6F93F907107B68DB6FB4
:103F00001A4678683FF0A8FF0346FB82B86840F67F
:103F1000B903704A704958F03BF9B7F91630D5E04B
:103F2000002300937B687B2200216FF0010047F0A3
:103F30008FF9B86840F6C403664A674958F028F913
:103F40000223C3E07B685B79302B40F0A180BB6922
:103F5000002B40F39D807B68DB6CBA699A4207DCDA
:103F60003B69B3F82C21BB699BB29A4280F09080E8
:103F70007B6893F85230002B7BD03B6993F8343147
:103F8000012B04D03B6993F83431002B71D13B698C
:103F9000B3F82C311A467B68DB6C9A4205DA3B6930
:103FA000B3F82C311A467B68DA64BB68BA6992B2FE
:103FB0001946786840F098F80346FB82B7F9163046
:103FC000002B3DD0B7F91630382B10D17B6870220A
:103FD0005A717B6801221A667B68012283F853209C
:103FE000BB681946786800F065F9B86150E0B7F928
:103FF0001630052B10D17B6870225A717B6809221C
:104000001A667B68012283F85320BB6819467868DA
:1040100000F050F9B8613BE00023BB838323FB83AE
:10402000FA8BB98B012300937B684FF0FF3047F088
:104030000FF9BB681946786800F069F9B86127E0A4
:10404000264B01221A707B68DB6F93F907107B689F
:10405000DB6F1A4678683FF0FFFE0346FB82B868C4
:1040600040F61A131B4A1C4958F092F8B7F916305B
:104070002CE0012300937B68362200216FF00100C1
:1040800047F0E6F8BB681946786800F013F9B861A4
:10409000BB69002B12DDBB68BA6992B21946786819
:1040A00057F09AFB0346FB82B86840F63213094A80
:1040B000094958F06DF8B7F9163007E0B86840F6CE
:1040C0003613044A044958F063F80223184620378F
:1040D000BD46B0BD9CFE060844E90608282F002016
:1040E00080B485B000AF0346FB800023FB81FB88D2
:1040F000333B552B00F2D48001A252F823F000BFCD
:10410000594200085F420008654200086B420008FF
:1041100071420008A1420008A1420008A142000823
:10412000A1420008A1420008A1420008A1420008E3
:10413000A1420008A1420008A1420008A1420008D3
:10414000A1420008A1420008A1420008A1420008C3
:10415000A1420008A1420008A1420008A1420008B3
:10416000A1420008A1420008A1420008A1420008A3
:10417000A1420008A1420008A1420008A142000893
:10418000A1420008A1420008A1420008A142000883
:10419000A1420008A1420008A1420008A142000873
:1041A000A1420008A1420008A1420008A142000863
:1041B000A1420008A1420008A1420008A142000853
:1041C000A1420008A1420008A1420008A142000843
:1041D000A1420008A1420008A1420008A142000833
:1041E000A1420008A1420008A1420008A142000823
:1041F000A1420008A1420008A1420008A142000813
:10420000A1420008A1420008A1420008A142000802
:10421000A1420008A1420008A1420008A1420008F2
:10422000774200087D420008834200088942000866
:104230008F420008A1420008A1420008A1420008E4
:10424000A1420008A1420008A1420008A1420008C2
:104250009B420008954200080123FB8123E00223D2
:10426000FB8120E00323FB811DE00423FB811AE096
:104270004023FB8117E00B23FB8114E00823FB8123
:1042800011E00923FB810EE00A23FB810BE00723E9
:10429000FB8108E00523FB8105E00623FB8102E0AA
:1042A0000023FB8100BFFB8918461437BD465DF82B
:1042B000047B704780B485B000AF7860396000231C
:1042C000FB603B68002B1BD07B68002B18D03B6841
:1042D00070221A707B6893F85330002B02D03B6831
:1042E00071221A703B6801337A6892F855201A706F
:1042F0007B681A6E3B680233D2B21A700323FB60EC
:10430000FB6818461437BD465DF8047B704780B5DE
:1043100084B000AF786039600023FB603B68002BFD
:1043200064D07B68002B61D03B6850221A703B68D8
:1043300001337A6892F855201A703B6802337A6824
:1043400092F858201A700323FB607B6893F858306A
:10435000102B30D1FB683A681344002118460EF048
:1043600073FA0246FB681344FB60FB683A681A4420
:104370007B68DB6D194610460FF088FC0246FB682F
:104380001344FB60FB683A681A447B681B6E19464D
:1043900010460FF07BFC0246FB681344FB60FB6891
:1043A0003A681344002118460EF085FA0246FB686D
:1043B0001344FB601AE0FB683A681A447B68DB6DC3
:1043C000194610460FF062FC0246FB681344FB607E
:1043D000FB683A681A447B681B6E194610460FF05A
:1043E00055FC0246FB681344FB6000BFFB6818469F
:1043F0001037BD4680BD000080B485B000AF0346D5
:10440000FB800023FB81FB883B3B092B34D801A2B6
:1044100052F823F03D440008434400084944000892
:104420004F440008554400085B44000861440008FC
:10443000674400086D440008734400080123FB81B1
:104440001DE00223FB811AE00323FB8117E0042314
:10445000FB8114E00523FB8111E00623FB810EE0C4
:104460000723FB810BE00823FB8108E00923FB8184
:1044700005E04023FB8102E00023FB8100BFFB89B4
:1044800018461437BD465DF8047B704780B485B08C
:1044900000AF786039600023FB603B68002B13D0CD
:1044A0007B68002B10D03B6860221A703B68013398
:1044B0007A6892F855201A707B681A6E3B6802334E
:1044C000D2B21A700323FB60FB6818461437BD464E
:1044D0005DF8047B704780B485B000AF78603960C8
:1044E0007B68DB783B737B689B787B737B685B784E
:1044F000BB737B681B78FB73FA683B681A60042304
:1045000018461437BD465DF8047B704780B584B00B
:1045100000AFF860B9607A60BB68042B05D07B6897
:104520004FF000021A60BB6804E07968F868FFF792
:10453000D2FF034618461037BD4680BD80B586B011
:1045400000AFF8600B467A60FB7200237B617B69E9
:10455000FA681344FA7A114618460EF0B9FA03467F
:10456000002B19D07B69FA68134407F1100207F198
:104570000B0118460EF024FA02467B6913447B6156
:104580007B69FA68134479681846FFF7A4FF02466E
:104590007B6913447B6102E04FF0FF337B617B69F1
:1045A00018461837BD4680BD80B485B000AF87ED92
:1045B000010A38607B68FB60FA7B3B681A703B68D5
:1045C0000133BA7B1A703B6802337A7B1A703B68FE
:1045D00003333A7B1A70042318461437BD465DF83E
:1045E000047B704780B485B000AF786039607B6829
:1045F000DB793B727B689B797B727B685B79BB72F2
:104600007B681B79FB727B68DB783B737B689B78EC
:104610007B737B685B78BB737B681B78FB73D7E924
:1046200002233968C1E90023082318461437BD4620
:104630005DF8047B704780B584B000AFF860B96066
:104640007A60BB68082B08D079684FF000024FF001
:104650000003C1E90023BB6804E07968F868FFF74C
:10466000C1FF034618461037BD4680BD80B487B0F1
:1046700000AF87ED020B7860D7E90223C7E9042376
:10468000FA7D7B681A707B680133BA7D1A707B688B
:1046900002337A7D1A707B6803333A7D1A707B6827
:1046A0000433FA7C1A707B680533BA7C1A707B6815
:1046B00006337A7C1A707B6807333A7C1A700823B9
:1046C00018461C37BD465DF8047B704780B586B040
:1046D00000AFF8600B467A60FB7200237B617B6958
:1046E000FA681344FA7A114618460EF0F1F90346B7
:1046F000002B19D07B69FA68134407F1100207F107
:104700000B0118460EF05CF902467B6913447B618D
:104710007B69FA68134479681846FFF763FF02461D
:104720007B6913447B6102E04FF0FF337B617B695F
:1047300018461837BD4680BD80B483B000AF78609E
:104740000B467B807B881B0A9BB2DAB27B681A70AF
:104750007B6801337A88D2B21A70022318460C376C
:10476000BD465DF8047B704780B483B000AF7860CD
:1047700039603B68002B0ED07B681B781B029AB215
:104780003B681A803B681B887A68013212781343B1
:104790009AB23B681A80022318460C37BD465DF872
:1047A000047B704780B483B000AF786039603B68A9
:1047B0001B0CDAB27B681A703B681A0A7B680133FB
:1047C000D2B21A707B6802333A68D2B21A700323ED
:1047D00018460C37BD465DF8047B704780B483B043
:1047E00000AF786039603B68002B18D07B681B787D
:1047F0001B0403F47F023B681A603B681A687B68FD
:1048000001331B781B029BB21A433B681A603B685A
:104810001B687A68023212781A433B681A600323D5
:1048200018460C37BD465DF8047B704780B483B0F2
:1048300000AF786039603B681B0EDAB27B681A7093
:104840003B681A0C7B680133D2B21A703B681A0AB3
:104850007B680233D2B21A707B6803333A68D2B2F3
:104860001A70042318460C37BD465DF8047B704768
:1048700080B483B000AF786039603B68002B21D0F2
:104880007B681B781A063B681A603B681A687B686D
:1048900001331B781B0403F47F031A433B681A603F
:1048A0003B681A687B6802331B781B029BB21A4371
:1048B0003B681A603B681B687A68033212781A43B7
:1048C0003B681A60042318460C37BD465DF8047B2C
:1048D000704780B483B000AF78600B46FB70FA7805
:1048E0007B681A70012318460C37BD465DF8047BBF
:1048F000704780B483B000AF786039603B68002BAC
:1049000004D07B681B781A463B681A60012318465E
:104910000C37BD465DF8047B704780B483B000AFB0
:10492000786039603B68002B13D07B681B785BB2E2
:10493000002B04DA3B686FF0FF021A6002E03B686C
:1049400000221A603B681B687A6812781A433B6839
:104950001A60012318460C37BD465DF8047B70478A
:1049600080B483B000AF78600B467B80B7F902302B
:104970001B12DAB27B681A707B6801337A88D2B274
:104980001A70022318460C37BD465DF8047B704749
:1049900080B483B000AF786039603B68002B1CD0D6
:1049A0007B681B785BB2002B03DA3B680E4A1A6007
:1049B00002E03B6800221A603B681A687B681B783B
:1049C0001B029BB21A433B681A603B681B687A68FB
:1049D000013212781A433B681A60022318460C37DA
:1049E000BD465DF8047B70470000FFFF80B483B0D4
:1049F00000AF786039603B681B14DAB27B681A70CC
:104A00003B681A127B680133D2B21A707B6802339A
:104A10003A68D2B21A70032318460C37BD465DF8C7
:104A2000047B704780B483B000AF786039603B6826
:104A3000002B28D07B681B785BB2002B04DA3B6824
:104A40004FF07F421A6002E03B6800221A603B6828
:104A50001A687B681B781B0403F47F031A433B68C6
:104A60001A603B681A687B6801331B781B029BB293
:104A70001A433B681A603B681B687A6802321278F6
:104A80001A433B681A60032318460C37BD465DF88D
:104A9000047B704780B483B000AF786039603B68B6
:104AA0001B0EDAB27B681A703B681A147B680133FC
:104AB000D2B21A703B681A127B680233D2B21A70F3
:104AC0007B6803333A68D2B21A70042318460C3755
:104AD000BD465DF8047B704780B483B000AF78605A
:104AE00039603B68002B21D07B681B781A063B6835
:104AF0001A603B681A687B6801331B781B0403F457
:104B00007F031A433B681A603B681A687B6802336C
:104B10001B781B029BB21A433B681A603B681B68F8
:104B20007A68033212781A433B681A6004231846E5
:104B30000C37BD465DF8047B704780B483B000AF8E
:104B400078607B681B7818460C37BD465DF8047B9F
:104B5000704780B485B000AF78600023FB730023FA
:104B6000BB7300237B737B681B78002B0BD07B68A7
:104B70001B78013B7B737B7BDB08BB73BB7B013307
:104B8000BB73BB7BFB73FB7B18461437BD465DF8DC
:104B9000047B704780B485B000AF78600B46FB7033
:104BA0000023FB73FB78072B04D8FB787A68134447
:104BB0005B78FB73FB7B18461437BD465DF8047BBE
:104BC000704780B485B000AF78600B46FB70134629
:104BD000BB700023FB737B68002B0DD0FB78DB00E0
:104BE000DAB27B681A707B681A78BB78D31ADAB2AB
:104BF0007B681A700123FB73FB7B18461437BD4694
:104C00005DF8047B704780B588B000AFF8607A60CB
:104C10003B600B46FB720023FB770023BB61002344
:104C2000FB82FB68002B5AD0FB6800221A60FB68ED
:104C3000FA7A9A71FB7A012B0ED107F11603194605
:104C40007868FFF791FD3B68023B3B607B68002B77
:104C500002D07B6802337B60FA8AFB689A803B68EB
:104C6000202B39D87B68002B24D00023BB611DE0AA
:104C7000BA693B689A4210D27A68BB691A44FB68E9
:104C80001B6892F90010FA6813440A46DA71FB684F
:104C90001B685A1CFB681A6005E0FA68BB6913447C
:104CA000073300221A70BB690133BB61BB691F2B3C
:104CB000DED90EE00023BB6108E0FA68BB6913444B
:104CC000073300221A70BB690133BB61BB691F2B1C
:104CD000F3D90123FB7702E0FB683A681A60FB7F97
:104CE00018462037BD4680BD80B485B000AF7860DF
:104CF0000023FB607B68002B02D07B680733FB60DE
:104D0000FB6818461437BD465DF8047B704780B4D5
:104D100085B000AF78600023FB607B68002B02D079
:104D20007B681B68FB60FB6818461437BD465DF85E
:104D3000047B704780B487B000AFF860B9607A60D8
:104D40000023FB75FB68002B37D0FB6800221A603C
:104D50007B68102B2ED8BB68002B19D000233B6139
:104D600011E0BA683B691A44FB681B681178FA685D
:104D700013440A461A71FB681B685A1CFB681A60C8
:104D80003B6901333B613A697B689A42E9D30EE0A3
:104D900000233B6108E0FA683B69134404330022B6
:104DA0001A703B6901333B613B690F2BF3D9012337
:104DB000FB7502E0FB687A681A60FB7D18461C37B9
:104DC000BD465DF8047B704780B485B000AF786065
:104DD0000023FB607B68002B02D07B680433FB6000
:104DE000FB6818461437BD465DF8047B704780B4F5
:104DF00085B000AF78600023FB607B68002B02D099
:104E00007B681B68FB60FB6818461437BD465DF87D
:104E1000047B704780B58CB000AFF860B9603B6030
:104E20001346FB710023FB850023BB623B6C002B08
:104E300001D102237CE03B6CBB62BB6A1B881A4633
:104E40003D4B1A60BB6A9B781A463B4B5A60BB6A63
:104E5000DB781A46384B9A60BB6A1B791A46364B88
:104E6000DA60BB6A9B791A46334B1A61BB6ADB79FD
:104E70001A46314B5A61BB6A1B7A1A462E4B9A610D
:104E8000BB6A5B7A1A462C4BDA612B4B1B69DBB28F
:104E90003B75294B5B69DBB27B75274B9B69DBB2AA
:104EA000BB75254BDB69FB610023BB610023FB75F0
:104EB00000233B6200237B6207F1140300221946A2
:104EC0001E485FF0D7F90346002B06D007F1140304
:104ED0000022194619485FF0CDF9174B1A68184B94
:104EE000A3FB02135B09642101FB03F3D31ADBB2BA
:104EF000FB74114B5B68DBB27B740F4B9B68DBB2BE
:104F0000BB740D4BDB68DBB23B7407F1100300226E
:104F100019460A485FF0A2FA0346002B06D007F1B3
:104F200010030022194605485FF098FAB7F92E30B1
:104F300018463037BD4680BD00000020DC780020D8
:104F40001F85EB5180B58CB000AFF860B9603B6055
:104F50001346FB710023FB6200237B853B6C002B17
:104F600001D102234EE03B6CFB62FB6A9B793B75EF
:104F7000FB6ADB797B75FB6A1B7ABB750023FB61DF
:104F80000023BB610023FB7500233B6200237B628F
:104F900007F11403002219461C485FF06BF9034621
:104FA000002B06D007F114030022194617485FF0C2
:104FB00061F9FB6A1B88164AA2FB0312520964219D
:104FC00001FB02F29B1A9BB2DBB2FB74FB6A9B787B
:104FD0007B74FB6ADB78BB74FB6A1B793B7407F15B
:104FE00010030022194609485FF038FA0346002BE7
:104FF00006D007F110030022194604485FF02EFA8C
:10500000B7F92A3018463037BD4680BDDC7800201D
:105010001F85EB5180B588B000AF7860396007F12B
:105020000C030022194615485FF0B6F907F1080392
:105030000022194611485FF097FABA7A7B68DA7055
:105040003A7A7B681A717A7A7B689A70FB7A03F5F0
:10505000FA639AB27B681A803A7B3B681A707A7B53
:105060003B685A70BA7B3B689A707B69DAB23B68DE
:10507000DA70002318462037BD4680BDDC7800205A
:1050800080B483B000AF0346FB80FB8803F00303CA
:105090009BB2002B1AD1FB88104AA2FB03125209C3
:1050A000642101FB02F29B1A9BB2002B0CD1FB88FE
:1050B0000A4AA2FB0312D2094FF4C87101FB02F2A3
:1050C0009B1A9BB2002B01D1012300E0002318465C
:1050D0000C37BD465DF8047B704700BF1F85EB5160
:1050E000B0B590B000AF03460A46FB8013467B7113
:1050F000154B07F10C041D460FCD0FC40FCD0FC487
:105100000FCD0FC42B6823607B79022B08D1FB885D
:105110001846FFF7B5FF0346002B01D01D230EE014
:105120007B79002B0AD07B790C2B07D87B799B00ED
:1051300040333B4453F8343CDBB200E000231846D4
:105140004037BD46B0BD00BF90E9060880B584B0C9
:1051500000AF0346FB800B467B7113463B71002377
:10516000FB6000233B7200237B8100237B727A79F2
:10517000FB8811461846FFF7B3FF03463B72FB88D6
:1051800040F26B7293423CD93B7A002B39D03B7989
:10519000002B36D03A793B7A9A4232D840F26C737F
:1051A0007B8110E0FB6803F26D13FB607B8918467E
:1051B000FFF766FF0346002B02D0FB680133FB605C
:1051C0007B8901337B817A89FB889A42EAD3012368
:1051D0007B720DE07A7A7B8911461846FFF780FFD3
:1051E00003461A46FB681344FB607B7A01337B72EB
:1051F0007A7A7B799A42EDD33A79FB681344013B82
:10520000FB60FB6818461037BD4680BD80B586B090
:1052100000AFF860B9607A603B6040F26C73FB826B
:1052200001237B7501233B751CE0FB8A1846FFF7C1
:1052300027FF0346002B04D0FB6840F26D12934217
:1052400015D0FB68A3F26D13FB60FB8A1846FFF7CD
:1052500017FF0346002B02D0FB68013BFB60FB8A73
:105260000133FB82FB68B3F5B67FDED80FE000BFE9
:105270000DE07A7DFB8A11461846FFF731FF0346A1
:105280001A46FB689B1AFB607B7D01337B757A7D38
:10529000FB8A11461846FFF723FF03461A46FB68B0
:1052A0009342E6D2FB68DAB23B7D13443B75BB68A0
:1052B000002B02D0BB68FA8A1A807B68002B02D0D0
:1052C0007B687A7D1A703B68002B03D03B683A7D7F
:1052D0001A7000BF00BF1837BD4680BD80B582B0D0
:1052E00000AF0346FB800B467B7113463B713A7956
:1052F0007979FB881846FFF729FF0246084BA3FB84
:105300000213D11A49080B4499080B46DB005B1ABB
:10531000D11ACBB20133DBB218460837BD4680BD87
:105320002549922480B485B000AF786039600023AD
:10533000FB607B68002B1DD03B68002B1AD07B687C
:105340001B881A463B681B88D31AFB60FB68002B3E
:1053500010D17B689B781A463B689B78D31AFB6018
:10536000FB68002B06D17B68DB781A463B68DB784C
:10537000D31AFB60FB6818461437BD465DF8047B02
:10538000704780B485B000AF786039600023FB605F
:105390007B68002B27D03B68002B24D07B681B78D0
:1053A0001A463B681B78D31AFB60FB68002B1AD1A6
:1053B0007B685B781A463B685B78D31AFB60FB68B6
:1053C000002B10D17B689B781A463B689B78D31AD8
:1053D000FB60FB68002B06D17B68DB781A463B68D4
:1053E000DB78D31AFB60FB6818461437BD465DF8BE
:1053F000047B704780B483B000AF0346FB710B465B
:10540000BB7113467B71FB794FF4616202FB03F1C0
:10541000BA7913461B019B1A9B00CA187B79134467
:1054200018460C37BD465DF8047B704780B487B0E2
:1054300000AFF860B9607A603B600023FB75002321
:10544000BB75FB681D4AA2FB0323DB0AFB75FB7DD2
:105450004FF4616202FB03F31A46FB689B1AFB6080
:10546000FB68174AA2FB03235B09BB75BA7D134691
:105470001B019B1A9B001A46FB689B1AFB60FB7D75
:10548000172B02D9FB7D183BFB75BB68002B02D0A4
:10549000BB68FA7D1A707B68002B02D07B68BA7DEE
:1054A0001A703B68002B03D0FB68DAB23B681A70B5
:1054B00000BF1C37BD465DF8047B7047C5B3A291A1
:1054C0008988888880B586B000AF7860396000230D
:1054D0007B6100233B610023FB607B6898797B68DC
:1054E000D9797B681B7A1A46FFF784FF03462B4A5B
:1054F000A2FB03235B097B617B6818887B68997832
:105500007B68DB781A46FFF721FE38613B685B0950
:10551000234AA2FB0323FB603A69FB6813443B6107
:10552000FB684FF4B46202FB03F33A68D31A3B60A2
:105530007A693B6813447B617B695B09184AA2FB6B
:105540000323FB603A69FB6813443B617A691346A5
:105550001B019B1A9B0018467B68991D7B68DA1D0E
:105560007B680833FFF762FF79687B689A1C7B6869
:1055700003333869FFF74AFE7B6818887B6899789F
:105580007B68DB781A46FFF7A9FE03461A467B685C
:105590001A7100BF1837BD4680BD00BF8988888852
:1055A000065BB00580B588B000AF78603960002335
:1055B0007B6100233B610023FB610023FB60002330
:1055C000BB610023BB603A6813461B019B1A9B001A
:1055D0003B617B6898797B68D9797B681B7A1A462E
:1055E000FFF708FF03467B617B6818887B68997822
:1055F0007B68DB781A46FFF7A9FDF8607A693B699A
:10560000D31A7B617B69002B09DA7B6903F5A83328
:1056100003F5C073BB61FB69013BFB6115E07B696E
:105620001F4A934206DD7B69A3F5A833A3F5C07337
:10563000BB6101E07B69BB617B691A4A82FB031293
:105640001A441214DB17D31AFB61BA68FB681344BF
:10565000BB60FB69BA681344BB607B68991D7B68BB
:10566000DA1D7B680833B869FFF7E0FE79687B686C
:105670009A1C7B680333B868FFF7C8FD7B681888FD
:105680007B6899787B68DB781A46FFF727FE03462C
:105690001A467B681A7100BF2037BD4680BD00BF27
:1056A0007F51010007452EC280B584B000AF7860FD
:1056B0000023FB730023BB737B68002B01D1002305
:1056C00049E07B681B8840F26B72934205D97B6886
:1056D0001B8840F66B02934201D900233BE07B68B4
:1056E0009B78002B03D07B689B780C2B01D900237F
:1056F00031E07B681B79002B03D07B681B79072B7B
:1057000001D9002327E07B681A887B689B781946BB
:105710001046FFF7E5FC0346FB737B68DB78002B44
:1057200004D07B68DB78FA7B9A4201D2002312E036
:105730007B6818887B6899787B68DB781A46FFF766
:10574000CDFD0346BB737B681B79BA7B9A4201D0BF
:10575000002300E0012318461037BD4680BD80B409
:1057600083B000AF78607B68002B01D1002318E084
:105770007B681B78172B01D9002312E07B685B78CC
:105780003B2B01D900230CE07B689B783B2B01D994
:10579000002306E07B68DB78632B01D9002300E05F
:1057A000012318460C37BD465DF8047B704780B571
:1057B00084B000AF786039600023FB737B68002BF6
:1057C00002D03B68002B01D1FB7B0EE07868FFF72D
:1057D0006BFF0346002B07D03868FFF7C0FF034676
:1057E000002B01D00123FB73FB7B18461037BD460D
:1057F00080BD000080B590B000AFF860B9607A60FD
:105800000023FB6107F1140300221A609A80002331
:105810007B6300233B630023FB620023BB62002306
:105820007B620023FB6300233B620023BB637B6836
:10583000FB62FB6A002B00F08580FB68002B00F008
:105840008180BB68002B7DD007F11C0207F1140397
:1058500011461846FFF7DEFBFB6AD3F8FC327B6388
:10586000FB6AD3F800333B637B6B002B0DD13B6BA2
:10587000002B0AD107F1140306221946F86867F0D5
:1058800034FAFA69BB681A605DE03B7F797FBA7FC2
:105890001846FFF7AFFD03467B62BB8AB97DFA7DF0
:1058A0001846FFF753FC0346BB627A6A7B6BD31A38
:1058B0007B62BA6A3B6BD31ABB627B6A002B09DA44
:1058C0007B6A03F5A83303F5C073FB63BB6B013B35
:1058D000BB6315E07B6A1D4A934206DD7B6AA3F534
:1058E000A833A3F5C073FB6301E07B6AFB637B6AAB
:1058F000174A82FB03121A441214DB17D31ABB6334
:10590000B968BB685A1CBB680233F86BFFF78EFDA1
:10591000BA6ABB6B13443B62F968FB689A1CFB686C
:105920000333386AFFF772FCFB681888FB689978C4
:10593000FB68DB781A46FFF7D1FC03461A46FB6882
:105940001A7100E000BF4037BD4680BD7F510100A5
:1059500007452EC280B584B000AF7860396000235F
:10596000FB603B6818883B6899783B68DB781A468F
:10597000FFF7ECFB0346FB60FA687B681344FB60AF
:10598000F86839683B689A1C3B680333FFF73EFCB4
:105990003B6818883B6899783B68DB781A46FFF7C4
:1059A0009DFC03461A463B681A71012318461037BE
:1059B000BD4680BD80B485B000AF78600123FB7325
:1059C0007B68002B01D1002318E07B681B88FF2B2C
:1059D00001D00023FB737B689B78FF2B01D0002351
:1059E000FB737B68DB78FF2B01D00023FB737B68A4
:1059F0001B79FF2B01D00023FB73FB7B1846143768
:105A0000BD465DF8047B704790B585B000AFF86087
:105A1000B9601346FB71FB79022B00F01B81022B4E
:105A200000F38481002B03D0012B00F08B807DE1FB
:105A3000BB681B88FF2B06D0BB681A88FB681B88D5
:105A40009A4200F26E81BB681A88FB681B889A42F2
:105A50000DD2BB681B88FF2B09D0BB689B780C2B31
:105A600005D8BB68DB781F2B01D801235FE1BB6839
:105A70009B780E2B21D8BB689A78FB689B789A425A
:105A800003D8BB689B78002B17D1BB689B780D2B84
:105A900006D1FB689B7803F00103DBB2002B0CD12D
:105AA000BB689B780E2B40F03C81FB689B7803F031
:105AB0000103DBB2002B40F03481BB689A78FB68AD
:105AC0009B789A4205D2BB68DB781F2B01D8012353
:105AD0002DE1BB68DB78222B32D8BB68DA78FB6813
